{
  "contractName": "SimpleStorage",
  "abi": [
    {
      "constant": true,
      "inputs": [],
      "name": "storedData",
      "outputs": [
        {
          "name": "",
          "type": "uint256"
        }
      ],
      "payable": false,
      "stateMutability": "view",
      "type": "function"
    },
    {
      "anonymous": false,
      "inputs": [
        {
          "indexed": false,
          "name": "_message",
          "type": "string"
        }
      ],
      "name": "StorageSet",
      "type": "event"
    },
    {
      "constant": false,
      "inputs": [
        {
          "name": "x",
          "type": "uint256"
        }
      ],
      "name": "set",
      "outputs": [],
      "payable": false,
      "stateMutability": "nonpayable",
      "type": "function"
    }
  ],
  "bytecode": "0x608060405234801561001057600080fd5b50610148806100206000396000f3fe608060405234801561001057600080fd5b5060043610610053576000357c0100000000000000000000000000000000000000000000000000000000900480632a1afcd91461005857806360fe47b114610076575b600080fd5b6100606100a4565b6040518082815260200191505060405180910390f35b6100a26004803603602081101561008c57600080fd5b81019080803590602001909291905050506100aa565b005b60005481565b806000819055507f60cdc157ca4737a5d39a0e107532616e7bf6946e615228812c7f9bc9f81797a660405180806020018281038252601a8152602001807f446174612073746f726564207375636365737366756c6c79212100000000000081525060200191505060405180910390a15056fea165627a7a723058209de2f79f8f9ed7aea42a8e47742be9f6fb3585929fd07752f273e247074060e90029",
  "source": "pragma solidity >=0.4.21 <0.6.0;\n\ncontract SimpleStorage {\n    event StorageSet(string _message);\n\n    uint public storedData;\n\n    function set(uint x) public {\n        storedData = x;\n\n        emit StorageSet(\"Data stored successfully!!\");\n    }\n}\n",
  "sourcePath": "C:/Users/ariel/medlab-bridge/contracts/SimpleStorage.sol",
  "compiler": {
    "name": "solc",
    "version": "0.5.8+commit.23d335f2.Emscripten.clang"
  },
  "schemaVersion": "3.0.11",
  "updatedAt": "2019-08-08T01:42:48.151Z",
  "devdoc": {
    "methods": {}
  },
  "userdoc": {
    "methods": {}
  }
}